{
  "address": "0x9Ea3d82F39327E4Ea879c3f8304A518BCAbd1aF7",
  "abi": [
    {
      "inputs": [
        {
          "internalType": "string",
          "name": "systemPrompt",
          "type": "string"
        }
      ],
      "stateMutability": "nonpayable",
      "type": "constructor"
    },
    {
      "anonymous": false,
      "inputs": [
        {
          "indexed": true,
          "internalType": "address",
          "name": "owner",
          "type": "address"
        },
        {
          "indexed": true,
          "internalType": "uint256",
          "name": "runId",
          "type": "uint256"
        }
      ],
      "name": "AgentRunCreated",
      "type": "event"
    },
    {
      "inputs": [],
      "name": "agentRunCount",
      "outputs": [
        {
          "internalType": "uint256",
          "name": "",
          "type": "uint256"
        }
      ],
      "stateMutability": "view",
      "type": "function"
    },
    {
      "inputs": [
        {
          "internalType": "uint256",
          "name": "",
          "type": "uint256"
        }
      ],
      "name": "agentRuns",
      "outputs": [
        {
          "internalType": "address",
          "name": "owner",
          "type": "address"
        },
        {
          "internalType": "address",
          "name": "creator",
          "type": "address"
        },
        {
          "internalType": "address",
          "name": "target",
          "type": "address"
        },
        {
          "internalType": "string",
          "name": "targetFirstName",
          "type": "string"
        },
        {
          "internalType": "string",
          "name": "targetFriend",
          "type": "string"
        },
        {
          "internalType": "enum LeadAgent.Situation",
          "name": "situation",
          "type": "uint8"
        },
        {
          "internalType": "address",
          "name": "situationAddress",
          "type": "address"
        },
        {
          "internalType": "string",
          "name": "publicInfo",
          "type": "string"
        },
        {
          "internalType": "string",
          "name": "privateInfo",
          "type": "string"
        },
        {
          "internalType": "string",
          "name": "groupTitle",
          "type": "string"
        },
        {
          "internalType": "string",
          "name": "groupImage",
          "type": "string"
        },
        {
          "internalType": "string",
          "name": "groupId",
          "type": "string"
        },
        {
          "internalType": "uint256",
          "name": "responsesCount",
          "type": "uint256"
        },
        {
          "internalType": "uint8",
          "name": "max_iterations",
          "type": "uint8"
        },
        {
          "internalType": "bool",
          "name": "is_finished",
          "type": "bool"
        }
      ],
      "stateMutability": "view",
      "type": "function"
    },
    {
      "inputs": [
        {
          "internalType": "address",
          "name": "_creator",
          "type": "address"
        }
      ],
      "name": "getAgentRuns",
      "outputs": [
        {
          "components": [
            {
              "internalType": "address",
              "name": "owner",
              "type": "address"
            },
            {
              "internalType": "address",
              "name": "creator",
              "type": "address"
            },
            {
              "internalType": "address",
              "name": "target",
              "type": "address"
            },
            {
              "internalType": "string",
              "name": "targetFirstName",
              "type": "string"
            },
            {
              "internalType": "string",
              "name": "targetFriend",
              "type": "string"
            },
            {
              "internalType": "enum LeadAgent.Situation",
              "name": "situation",
              "type": "uint8"
            },
            {
              "internalType": "address",
              "name": "situationAddress",
              "type": "address"
            },
            {
              "internalType": "string",
              "name": "publicInfo",
              "type": "string"
            },
            {
              "internalType": "string",
              "name": "privateInfo",
              "type": "string"
            },
            {
              "internalType": "string",
              "name": "groupTitle",
              "type": "string"
            },
            {
              "internalType": "string",
              "name": "groupImage",
              "type": "string"
            },
            {
              "internalType": "string",
              "name": "groupId",
              "type": "string"
            },
            {
              "internalType": "uint256",
              "name": "responsesCount",
              "type": "uint256"
            },
            {
              "internalType": "uint8",
              "name": "max_iterations",
              "type": "uint8"
            },
            {
              "internalType": "bool",
              "name": "is_finished",
              "type": "bool"
            }
          ],
          "internalType": "struct LeadAgent.AgentRunInfo[]",
          "name": "",
          "type": "tuple[]"
        }
      ],
      "stateMutability": "view",
      "type": "function"
    },
    {
      "inputs": [
        {
          "internalType": "uint256",
          "name": "runId",
          "type": "uint256"
        }
      ],
      "name": "isRunFinished",
      "outputs": [
        {
          "internalType": "bool",
          "name": "",
          "type": "bool"
        }
      ],
      "stateMutability": "view",
      "type": "function"
    },
    {
      "inputs": [],
      "name": "prompt",
      "outputs": [
        {
          "internalType": "string",
          "name": "",
          "type": "string"
        }
      ],
      "stateMutability": "view",
      "type": "function"
    },
    {
      "inputs": [
        {
          "internalType": "uint8",
          "name": "max_iterations",
          "type": "uint8"
        },
        {
          "internalType": "address",
          "name": "creator",
          "type": "address"
        },
        {
          "internalType": "address",
          "name": "target",
          "type": "address"
        },
        {
          "internalType": "string",
          "name": "targetFirstName",
          "type": "string"
        },
        {
          "internalType": "string",
          "name": "targetFriend",
          "type": "string"
        },
        {
          "internalType": "enum LeadAgent.Situation",
          "name": "situation",
          "type": "uint8"
        },
        {
          "internalType": "address",
          "name": "situationAddress",
          "type": "address"
        },
        {
          "internalType": "string",
          "name": "publicInfo",
          "type": "string"
        },
        {
          "internalType": "string",
          "name": "privateInfo",
          "type": "string"
        },
        {
          "internalType": "string",
          "name": "groupTitle",
          "type": "string"
        },
        {
          "internalType": "string",
          "name": "groupImage",
          "type": "string"
        },
        {
          "internalType": "string",
          "name": "groupId",
          "type": "string"
        }
      ],
      "name": "runAgent",
      "outputs": [
        {
          "internalType": "uint256",
          "name": "",
          "type": "uint256"
        }
      ],
      "stateMutability": "nonpayable",
      "type": "function"
    }
  ],
  "transactionHash": "0xad506bf74349fcef6db399ca7e472ef649cac44503ecfcf203850b0dfe9288ce",
  "args": [
    "You are a helpful assistant"
  ],
  "numDeployments": 2,
  "solcInputHash": "94dd55fc102851b6d16d72073868bc69",
  "bytecode": "0x60806040523462000227576200166f803803806200001d816200022c565b92833981019060208082840312620002275781516001600160401b039283821162000227570192601f9080828601121562000227578451848111620001fc57601f199562000071828501881686016200022c565b928284528583830101116200022757849060005b8381106200021257505060009183010152600380546001600160a01b031916331790558051938411620001fc57600054926001938481811c91168015620001f1575b82821014620001db5783811162000190575b5080928511600114620001265750839450908392916000946200011a575b50501b916000199060031b1c1916176000555b60405161141c9081620002538239f35b015192503880620000f7565b9294849081166000805284600020946000905b888383106200017557505050106200015b575b505050811b016000556200010a565b015160001960f88460031b161c191690553880806200014c565b85870151885590960195948501948793509081019062000139565b60008052816000208480880160051c820192848910620001d1575b0160051c019085905b828110620001c4575050620000d9565b60008155018590620001b4565b92508192620001ab565b634e487b7160e01b600052602260045260246000fd5b90607f1690620000c7565b634e487b7160e01b600052604160045260246000fd5b81810183015185820184015286920162000085565b600080fd5b6040519190601f01601f191682016001600160401b03811183821017620001fc5760405256fe60a0604052600436101561001257600080fd5b60003560e01c80630911674b14610d765780632eab9c8114610d3f578063648b81ab146102de5780637c65d711146101fb578063c63b0295146100815763dade4cf91461005e57600080fd5b3461007c57600036600319011261007c576020600254604051908152f35b600080fd5b3461007c57602036600319011261007c5760043560005260016020526040600020600160a01b6001900390818154169082600182015416928060028301541690600383016100ce906112f0565b906100db600485016112f0565b906005850154600686016100ee906112f0565b6100fa600788016112f0565b91610107600889016112f0565b9361011460098a016112f0565b95610121600a8b016112f0565b97600b8b01549a600c0154996040519d8e809e81526020015260408d01528b6101e06060819201528c01610154916111d6565b8b810360808d0152610165916111d6565b9161017660a08c0160ff8316611216565b60081c1660c08a015288810360e08a0152610190916111d6565b8781036101008901526101a2916111d6565b8681036101208801526101b4916111d6565b8581036101408701526101c6916111d6565b8481036101608601526101d8916111d6565b9161018084015260ff81166101a084015260081c60ff1615156101c08301520390f35b3461007c57600036600319011261007c576040516000805461021c816112b6565b808452906001908181169081156102b7575060011461025e575b61025a846102468186038261123f565b6040519182916020835260208301906111d6565b0390f35b600080805292507f290decd9548b62a8d60345a988386fc84ba6bc95484008f6362f93160ef3e5635b82841061029f57505050810160200161024682610236565b80546020858701810191909152909301928101610287565b60ff191660208087019190915292151560051b850190920192506102469150839050610236565b3461007c5761018036600319011261007c5760043560ff8116810361007c576024356001600160a01b038116810361007c576044356001600160a01b038116810361007c576064356001600160401b03811161007c57610342903690600401611260565b926084356001600160401b03811161007c57610362903690600401611260565b600260a435101561007c5760c4356001600160a01b038116900361007c5760e4356001600160401b03811161007c5761039f903690600401611260565b610104356001600160401b03811161007c576103bf903690600401611260565b610124356001600160401b03811161007c576103df903690600401611260565b91610144356001600160401b03811161007c57610400903690600401611260565b936001600160401b03610164351161007c576104223661016435600401611260565b98600254978860005260016020526040600020996bffffffffffffffffffffffff60a01b9033828d5416178c5560018c019060018060a01b03168282541617905560028b019160018060a01b0316908254161790558051906001600160401b03821161084957819061049760038c01546112b6565b601f8111610cec575b50602090601f8311600114610c7a57600092610c6f575b50508160011b916000199060031b1c19161760038901555b8051906001600160401b0382116108495781906104ef60048b01546112b6565b601f8111610c1c575b50602090601f8311600114610baa57600092610b9f575b50508160011b916000199060031b1c19161760048801555b6005870180546001600160a81b03191660a43560ff161760c43560081b610100600160a81b03161790558051906001600160401b03821161084957819061057160068a01546112b6565b601f8111610b4c575b50602090601f8311600114610ada57600092610acf575b50508160011b916000199060031b1c19161760068701555b8051906001600160401b0382116108495781906105c960078901546112b6565b601f8111610a7c575b50602090601f8311600114610a0a576000926109ff575b50508160011b916000199060031b1c19161760078601555b8051906001600160401b03821161084957819061062160088801546112b6565b601f81116109ac575b50602090601f831160011461093a5760009261092f575b50508160011b916000199060031b1c19161760088501555b8051906001600160401b03821161084957819061067960098701546112b6565b601f81116108dc575b50602090601f831160011461086a5760009261085f575b50508160011b916000199060031b1c19161760098401555b83516001600160401b038111610849576106ce600a8501546112b6565b601f8111610802575b50602094601f82116001146107965794819293949560009261078b575b50508160011b916000199060031b1c191617600a8401555b600c83019060ff8254916000600b870155169061ffff191617905560025491600183018093116107755760209260025560018060a01b039054169080604051927f9697c88a6be3b3ed5062f2dcbd719a10914832320686f14e24f7756210a6685e600080a38152f35b634e487b7160e01b600052601160045260246000fd5b0151905085806106f4565b601f19821695600a860160005260206000209160005b8881106107ea575083600195969798106107d1575b505050811b01600a84015561070c565b015160001960f88460031b161c191690558580806107c1565b919260206001819286850151815501940192016107ac565b600a85016000526020600020601f830160051c810160208410610842575b601f830160051c820181106108365750506106d7565b60008155600101610820565b5080610820565b634e487b7160e01b600052604160045260246000fd5b015190508680610699565b9250600986016000526020600020906000935b601f19841685106108c1576001945083601f198116106108a8575b505050811b0160098401556106b1565b015160001960f88460031b161c19169055868080610898565b8181015183556020948501946001909301929091019061087d565b909150600986016000526020600020601f840160051c810160208510610928575b90849392915b601f830160051c82018110610919575050610682565b60008155859450600101610903565b50806108fd565b015190508780610641565b9250600887016000526020600020906000935b601f1984168510610991576001945083601f19811610610978575b505050811b016008850155610659565b015160001960f88460031b161c19169055878080610968565b8181015183556020948501946001909301929091019061094d565b909150600887016000526020600020601f840160051c8101602085106109f8575b90849392915b601f830160051c820181106109e957505061062a565b600081558594506001016109d3565b50806109cd565b0151905088806105e9565b9250600788016000526020600020906000935b601f1984168510610a61576001945083601f19811610610a48575b505050811b016007860155610601565b015160001960f88460031b161c19169055888080610a38565b81810151835560209485019460019093019290910190610a1d565b909150600788016000526020600020601f840160051c810160208510610ac8575b90849392915b601f830160051c82018110610ab95750506105d2565b60008155859450600101610aa3565b5080610a9d565b015190508980610591565b9250600689016000526020600020906000935b601f1984168510610b31576001945083601f19811610610b18575b505050811b0160068701556105a9565b015160001960f88460031b161c19169055898080610b08565b81810151835560209485019460019093019290910190610aed565b909150600689016000526020600020601f840160051c810160208510610b98575b90849392915b601f830160051c82018110610b8957505061057a565b60008155859450600101610b73565b5080610b6d565b015190508a8061050f565b925060048a016000526020600020906000935b601f1984168510610c01576001945083601f19811610610be8575b505050811b016004880155610527565b015160001960f88460031b161c191690558a8080610bd8565b81810151835560209485019460019093019290910190610bbd565b90915060048a016000526020600020601f840160051c810160208510610c68575b90849392915b601f830160051c82018110610c595750506104f8565b60008155859450600101610c43565b5080610c3d565b015190508b806104b7565b925060038b016000526020600020906000935b601f1984168510610cd1576001945083601f19811610610cb8575b505050811b0160038901556104cf565b015160001960f88460031b161c191690558b8080610ca8565b81810151835560209485019460019093019290910190610c8d565b90915060038b016000526020600020601f840160051c810160208510610d38575b90849392915b601f830160051c82018110610d295750506104a0565b60008155859450600101610d13565b5080610d0d565b3461007c57602036600319011261007c576004356000526001602052602060ff600c6040600020015460081c166040519015158152f35b3461007c57602036600319011261007c576001600160a01b036080819052600435908116900361007c57600080600254905b81811061117d5750610db9826113a5565b91610dc7604051938461123f565b808352610dd6601f19916113a5565b0160005b8181106110fd57505060009060005b818110610f5a57836040518091602082016020835281518091526040830190602060408260051b8601019301916000905b828210610e2957505050500390f35b919360019193955060208091603f1989820301855287519060805182511681526080518383015116838201526080516040830151166040820152610f24610f10610efc610ee8610ed4610ea1610e8f6060808a0151906101e080918b01528901906111d6565b608089015188820360808a01526111d6565b610eb360a0808a015190890190611216565b60805160c090818a0151169088015260e088015187820360e08901526111d6565b6101008088015190878303908801526111d6565b6101208087015190868303908701526111d6565b6101408086015190858303908601526111d6565b6101608085015190848303908501526111d6565b9161018080820151908301526101a060ff8183015116908301526101c08091015115159101529601920192018594939192610e1a565b608051806004351680159081156110e1575b50610f81575b50610f7c90611396565b610de9565b60008281526001602081905260409182902080549181015460028201546005830154600b840154600c8501549651989a60088087019a93999198939760ff9185901c8216979482169693956007860195600a810195938d169460098201946006830194600484019460039094019383169291821691166110008e611223565b8d5260208d015260408c0152611015906112f0565b60608b0152611023906112f0565b60808a015260028310156110cb57610f7c9b61106e61108f96611064611079946110c49f60c08f916110849a60a08401526080519060081c169101526112f0565b60e08d01526112f0565b6101008b01526112f0565b6101208901526112f0565b6101408701526112f0565b6101608501526101808401526101a083015215156101c08201526110b382886113bc565b526110be81876113bc565b50611396565b9290610f72565b634e487b7160e01b600052602160045260246000fd5b9050826000528160018060205260406000200154161486610f6c565b60209060405161110c81611223565b600081526000838201526000604082015260608080830152806080830152600060a0830152600060c08301528060e0830152806101008301528061012083015280610140830152610160820152600061018082015260006101a082015260006101c082015282828701015201610dda565b608051806004351680159182156111b9575b50506111a4575b61119f90611396565b610da8565b916111b161119f91611396565b929050611196565b90915082600052600180602052604060002001541614848061118f565b919082519283825260005b848110611202575050826000602080949584010152601f8019910116010190565b6020818301810151848301820152016111e1565b9060028210156110cb5752565b6101e081019081106001600160401b0382111761084957604052565b90601f801991011681019081106001600160401b0382111761084957604052565b81601f8201121561007c578035906001600160401b0382116108495760405192611294601f8401601f19166020018561123f565b8284526020838301011161007c57816000926020809301838601378301015290565b90600182811c921680156112e6575b60208310146112d057565b634e487b7160e01b600052602260045260246000fd5b91607f16916112c5565b9060405191826000825492611304846112b6565b9081845260019485811690816000146113735750600114611330575b505061132e9250038361123f565b565b9093915060005260209081600020936000915b81831061135b57505061132e93508201013880611320565b85548884018501529485019487945091830191611343565b91505061132e94506020925060ff191682840152151560051b8201013880611320565b60001981146107755760010190565b6001600160401b0381116108495760051b60200190565b80518210156113d05760209160051b010190565b634e487b7160e01b600052603260045260246000fdfea26469706673582212209504f7b4f813e77ad73d3e719c15201425117415e07b152cff5a822fd31dca4b64736f6c63430008110033",
  "devdoc": {
    "kind": "dev",
    "methods": {},
    "version": 1
  },
  "userdoc": {
    "kind": "user",
    "methods": {},
    "version": 1
  },
  "storageLayout": {
    "storage": [
      {
        "astId": 3,
        "contract": "contracts/LeadAgent.sol:LeadAgent",
        "label": "prompt",
        "offset": 0,
        "slot": "0",
        "type": "t_string_storage"
      },
      {
        "astId": 75,
        "contract": "contracts/LeadAgent.sol:LeadAgent",
        "label": "agentRuns",
        "offset": 0,
        "slot": "1",
        "type": "t_mapping(t_uint256,t_struct(AgentRun)38_storage)"
      },
      {
        "astId": 77,
        "contract": "contracts/LeadAgent.sol:LeadAgent",
        "label": "agentRunCount",
        "offset": 0,
        "slot": "2",
        "type": "t_uint256"
      },
      {
        "astId": 85,
        "contract": "contracts/LeadAgent.sol:LeadAgent",
        "label": "owner",
        "offset": 0,
        "slot": "3",
        "type": "t_address"
      }
    ],
    "types": {
      "t_address": {
        "encoding": "inplace",
        "label": "address",
        "numberOfBytes": "20"
      },
      "t_bool": {
        "encoding": "inplace",
        "label": "bool",
        "numberOfBytes": "1"
      },
      "t_enum(Situation)6": {
        "encoding": "inplace",
        "label": "enum LeadAgent.Situation",
        "numberOfBytes": "1"
      },
      "t_mapping(t_uint256,t_struct(AgentRun)38_storage)": {
        "encoding": "mapping",
        "key": "t_uint256",
        "label": "mapping(uint256 => struct LeadAgent.AgentRun)",
        "numberOfBytes": "32",
        "value": "t_struct(AgentRun)38_storage"
      },
      "t_string_storage": {
        "encoding": "bytes",
        "label": "string",
        "numberOfBytes": "32"
      },
      "t_struct(AgentRun)38_storage": {
        "encoding": "inplace",
        "label": "struct LeadAgent.AgentRun",
        "members": [
          {
            "astId": 8,
            "contract": "contracts/LeadAgent.sol:LeadAgent",
            "label": "owner",
            "offset": 0,
            "slot": "0",
            "type": "t_address"
          },
          {
            "astId": 10,
            "contract": "contracts/LeadAgent.sol:LeadAgent",
            "label": "creator",
            "offset": 0,
            "slot": "1",
            "type": "t_address"
          },
          {
            "astId": 12,
            "contract": "contracts/LeadAgent.sol:LeadAgent",
            "label": "target",
            "offset": 0,
            "slot": "2",
            "type": "t_address"
          },
          {
            "astId": 14,
            "contract": "contracts/LeadAgent.sol:LeadAgent",
            "label": "targetFirstName",
            "offset": 0,
            "slot": "3",
            "type": "t_string_storage"
          },
          {
            "astId": 16,
            "contract": "contracts/LeadAgent.sol:LeadAgent",
            "label": "targetFriend",
            "offset": 0,
            "slot": "4",
            "type": "t_string_storage"
          },
          {
            "astId": 19,
            "contract": "contracts/LeadAgent.sol:LeadAgent",
            "label": "situation",
            "offset": 0,
            "slot": "5",
            "type": "t_enum(Situation)6"
          },
          {
            "astId": 21,
            "contract": "contracts/LeadAgent.sol:LeadAgent",
            "label": "situationAddress",
            "offset": 1,
            "slot": "5",
            "type": "t_address"
          },
          {
            "astId": 23,
            "contract": "contracts/LeadAgent.sol:LeadAgent",
            "label": "publicInfo",
            "offset": 0,
            "slot": "6",
            "type": "t_string_storage"
          },
          {
            "astId": 25,
            "contract": "contracts/LeadAgent.sol:LeadAgent",
            "label": "privateInfo",
            "offset": 0,
            "slot": "7",
            "type": "t_string_storage"
          },
          {
            "astId": 27,
            "contract": "contracts/LeadAgent.sol:LeadAgent",
            "label": "groupTitle",
            "offset": 0,
            "slot": "8",
            "type": "t_string_storage"
          },
          {
            "astId": 29,
            "contract": "contracts/LeadAgent.sol:LeadAgent",
            "label": "groupImage",
            "offset": 0,
            "slot": "9",
            "type": "t_string_storage"
          },
          {
            "astId": 31,
            "contract": "contracts/LeadAgent.sol:LeadAgent",
            "label": "groupId",
            "offset": 0,
            "slot": "10",
            "type": "t_string_storage"
          },
          {
            "astId": 33,
            "contract": "contracts/LeadAgent.sol:LeadAgent",
            "label": "responsesCount",
            "offset": 0,
            "slot": "11",
            "type": "t_uint256"
          },
          {
            "astId": 35,
            "contract": "contracts/LeadAgent.sol:LeadAgent",
            "label": "max_iterations",
            "offset": 0,
            "slot": "12",
            "type": "t_uint8"
          },
          {
            "astId": 37,
            "contract": "contracts/LeadAgent.sol:LeadAgent",
            "label": "is_finished",
            "offset": 1,
            "slot": "12",
            "type": "t_bool"
          }
        ],
        "numberOfBytes": "416"
      },
      "t_uint256": {
        "encoding": "inplace",
        "label": "uint256",
        "numberOfBytes": "32"
      },
      "t_uint8": {
        "encoding": "inplace",
        "label": "uint8",
        "numberOfBytes": "1"
      }
    }
  }
}